{"contracts/ping-receiver.sol":{"PingReceiver":{"abi":[{"anonymous":false,"inputs":[{"indexed":false,"internalType":"bytes32","name":"sender","type":"bytes32"}],"name":"PongEmitted","type":"event"},{"inputs":[{"internalType":"bytes32","name":"sender","type":"bytes32"},{"internalType":"bytes","name":"","type":"bytes"}],"name":"handleMessage","outputs":[],"stateMutability":"nonpayable","type":"function"}],"evm":{"bytecode":{"linkReferences":{},"object":"608060405234801561001057600080fd5b506101ed806100206000396000f3fe608060405234801561001057600080fd5b506004361061002b5760003560e01c8063302ac5d014610030575b600080fd5b61004a6004803603810190610045919061012d565b61004c565b005b7fc44ef3954b2c4cf3d82b4d2dda588c48b05f64a42207efd9f512f934ebfb1fcf8360405161007b919061019c565b60405180910390a1505050565b600080fd5b600080fd5b6000819050919050565b6100a581610092565b81146100b057600080fd5b50565b6000813590506100c28161009c565b92915050565b600080fd5b600080fd5b600080fd5b60008083601f8401126100ed576100ec6100c8565b5b8235905067ffffffffffffffff81111561010a576101096100cd565b5b602083019150836001820283011115610126576101256100d2565b5b9250929050565b60008060006040848603121561014657610145610088565b5b6000610154868287016100b3565b935050602084013567ffffffffffffffff8111156101755761017461008d565b5b610181868287016100d7565b92509250509250925092565b61019681610092565b82525050565b60006020820190506101b1600083018461018d565b9291505056fea2646970667358221220afa1fb5da800c2a450ec69017b3165f1696c965c10b75fc91827ca69643f184064736f6c63430008180033","opcodes":"PUSH1 0x80 PUSH1 0x40 MSTORE CALLVALUE DUP1 ISZERO PUSH2 0x10 JUMPI PUSH1 0x0 DUP1 REVERT JUMPDEST POP PUSH2 0x1ED DUP1 PUSH2 0x20 PUSH1 0x0 CODECOPY PUSH1 0x0 RETURN INVALID PUSH1 0x80 PUSH1 0x40 MSTORE CALLVALUE DUP1 ISZERO PUSH2 0x10 JUMPI PUSH1 0x0 DUP1 REVERT JUMPDEST POP PUSH1 0x4 CALLDATASIZE LT PUSH2 0x2B JUMPI PUSH1 0x0 CALLDATALOAD PUSH1 0xE0 SHR DUP1 PUSH4 0x302AC5D0 EQ PUSH2 0x30 JUMPI JUMPDEST PUSH1 0x0 DUP1 REVERT JUMPDEST PUSH2 0x4A PUSH1 0x4 DUP1 CALLDATASIZE SUB DUP2 ADD SWAP1 PUSH2 0x45 SWAP2 SWAP1 PUSH2 0x12D JUMP JUMPDEST PUSH2 0x4C JUMP JUMPDEST STOP JUMPDEST PUSH32 0xC44EF3954B2C4CF3D82B4D2DDA588C48B05F64A42207EFD9F512F934EBFB1FCF DUP4 PUSH1 0x40 MLOAD PUSH2 0x7B SWAP2 SWAP1 PUSH2 0x19C JUMP JUMPDEST PUSH1 0x40 MLOAD DUP1 SWAP2 SUB SWAP1 LOG1 POP POP POP JUMP JUMPDEST PUSH1 0x0 DUP1 REVERT JUMPDEST PUSH1 0x0 DUP1 REVERT JUMPDEST PUSH1 0x0 DUP2 SWAP1 POP SWAP2 SWAP1 POP JUMP JUMPDEST PUSH2 0xA5 DUP2 PUSH2 0x92 JUMP JUMPDEST DUP2 EQ PUSH2 0xB0 JUMPI PUSH1 0x0 DUP1 REVERT JUMPDEST POP JUMP JUMPDEST PUSH1 0x0 DUP2 CALLDATALOAD SWAP1 POP PUSH2 0xC2 DUP2 PUSH2 0x9C JUMP JUMPDEST SWAP3 SWAP2 POP POP JUMP JUMPDEST PUSH1 0x0 DUP1 REVERT JUMPDEST PUSH1 0x0 DUP1 REVERT JUMPDEST PUSH1 0x0 DUP1 REVERT JUMPDEST PUSH1 0x0 DUP1 DUP4 PUSH1 0x1F DUP5 ADD SLT PUSH2 0xED JUMPI PUSH2 0xEC PUSH2 0xC8 JUMP JUMPDEST JUMPDEST DUP3 CALLDATALOAD SWAP1 POP PUSH8 0xFFFFFFFFFFFFFFFF DUP2 GT ISZERO PUSH2 0x10A JUMPI PUSH2 0x109 PUSH2 0xCD JUMP JUMPDEST JUMPDEST PUSH1 0x20 DUP4 ADD SWAP2 POP DUP4 PUSH1 0x1 DUP3 MUL DUP4 ADD GT ISZERO PUSH2 0x126 JUMPI PUSH2 0x125 PUSH2 0xD2 JUMP JUMPDEST JUMPDEST SWAP3 POP SWAP3 SWAP1 POP JUMP JUMPDEST PUSH1 0x0 DUP1 PUSH1 0x0 PUSH1 0x40 DUP5 DUP7 SUB SLT ISZERO PUSH2 0x146 JUMPI PUSH2 0x145 PUSH2 0x88 JUMP JUMPDEST JUMPDEST PUSH1 0x0 PUSH2 0x154 DUP7 DUP3 DUP8 ADD PUSH2 0xB3 JUMP JUMPDEST SWAP4 POP POP PUSH1 0x20 DUP5 ADD CALLDATALOAD PUSH8 0xFFFFFFFFFFFFFFFF DUP2 GT ISZERO PUSH2 0x175 JUMPI PUSH2 0x174 PUSH2 0x8D JUMP JUMPDEST JUMPDEST PUSH2 0x181 DUP7 DUP3 DUP8 ADD PUSH2 0xD7 JUMP JUMPDEST SWAP3 POP SWAP3 POP POP SWAP3 POP SWAP3 POP SWAP3 JUMP JUMPDEST PUSH2 0x196 DUP2 PUSH2 0x92 JUMP JUMPDEST DUP3 MSTORE POP POP JUMP JUMPDEST PUSH1 0x0 PUSH1 0x20 DUP3 ADD SWAP1 POP PUSH2 0x1B1 PUSH1 0x0 DUP4 ADD DUP5 PUSH2 0x18D JUMP JUMPDEST SWAP3 SWAP2 POP POP JUMP INVALID LOG2 PUSH5 0x6970667358 0x22 SLT KECCAK256 0xAF LOG1 0xFB TSTORE 0xA8 STOP 0xC2 LOG4 POP 0xEC PUSH10 0x17B3165F1696C965C10 0xB7 PUSH0 0xC9 XOR 0x27 0xCA PUSH10 0x643F184064736F6C6343 STOP ADDMOD XOR STOP CALLER "},"methodIdentifiers":{"handleMessage(bytes32,bytes)":"302ac5d0"}}}}}