{
  "_format": "hh-sol-artifact-1",
  "contractName": "PingReceiver",
  "sourceName": "contracts/ping-receiver.sol",
  "abi": [
    {
      "anonymous": false,
      "inputs": [
        {
          "indexed": false,
          "internalType": "bytes32",
          "name": "sender",
          "type": "bytes32"
        }
      ],
      "name": "PongEmitted",
      "type": "event"
    },
    {
      "inputs": [
        {
          "internalType": "bytes32",
          "name": "sender",
          "type": "bytes32"
        },
        {
          "internalType": "bytes",
          "name": "",
          "type": "bytes"
        }
      ],
      "name": "handleMessage",
      "outputs": [],
      "stateMutability": "nonpayable",
      "type": "function"
    }
  ],
  "bytecode": "0x608060405234801561001057600080fd5b506101ed806100206000396000f3fe608060405234801561001057600080fd5b506004361061002b5760003560e01c8063302ac5d014610030575b600080fd5b61004a6004803603810190610045919061012d565b61004c565b005b7fc44ef3954b2c4cf3d82b4d2dda588c48b05f64a42207efd9f512f934ebfb1fcf8360405161007b919061019c565b60405180910390a1505050565b600080fd5b600080fd5b6000819050919050565b6100a581610092565b81146100b057600080fd5b50565b6000813590506100c28161009c565b92915050565b600080fd5b600080fd5b600080fd5b60008083601f8401126100ed576100ec6100c8565b5b8235905067ffffffffffffffff81111561010a576101096100cd565b5b602083019150836001820283011115610126576101256100d2565b5b9250929050565b60008060006040848603121561014657610145610088565b5b6000610154868287016100b3565b935050602084013567ffffffffffffffff8111156101755761017461008d565b5b610181868287016100d7565b92509250509250925092565b61019681610092565b82525050565b60006020820190506101b1600083018461018d565b9291505056fea2646970667358221220afa1fb5da800c2a450ec69017b3165f1696c965c10b75fc91827ca69643f184064736f6c63430008180033",
  "linkReferences": {},
  "deployedLinkReferences": {}
}